:10000000FE2F00308A000408840A8207003400347E
:10001000003401340034013400340134003401343C
:10002000003401340034013400340034003400342E
:10003000003400340034003400340134003401341E
:10004000003400340034013400340034003401340E
:1000500000340134003400340034013400340134FD
:1000600000340134003400340034003400340134EE
:1000700000340134003401340034013400340134DC
:1000800000340134003400340034003400340134CE
:1000900000340134003400340034013400340134BD
:1000A00000340034003401340034013400340034AE
:1000B000003401340034013400340134003401349C
:1000C000003401340034013400340034003401348D
:1000D0000034003400340034003400340034003480
:1000E000003401340034013400340134003401346C
:1000F000003401340034013400340134003401345C
:10010000003401340034013400340134003401344B
:10011000003400340034013400340134003401343C
:060120000034013400343C
:100D8E00F401F501701CD12E7208F4070318F50A50
:100D9E007308F50701300310F20DF30DFF3E031D2E
:100DAE00D22E01300310F10CF00CFF3E031DD92E94
:100DBE0071087004031DC92E7508F101F10774083E
:100DCE00F001F00708007908F101F1077808F00149
:100DDE00F0070730F2000030F300C72671088312C7
:100DEE000313A101A1077008A001A0077609FA005C
:100DFE007709FB00FA0A0319FB0A20087A07FC00A0
:100E0E0021080318210A7B07FD007C08063EA2007C
:100E1E007D080318013E003EA3002208FA007A075F
:100E2E00013E84000120F6000120F7000800831225
:100E3E0003138501831603130510851005158515FB
:100E4E00051685160517851783120313860183165B
:100E5E000313860183120313860107309F000930A6
:100E6E00A9000030AA00A701A80183120313851D53
:100E7E00592F28082704031D592F093029062A0443
:100E8E000319522F2908013EA9002A080318013E12
:100E9E00003EAA00542FA901AA010130A70000307C
:100EAE00A8005D2F85195D2FA701A8012A08A501AD
:100EBE00A5072908A401A40765273C2F0030F600DA
:100ECE000030F700831203132508F901F9072408EF
:100EDE00F801F807EA268312031306087606FE3990
:100EEE00760686000130F6000030F7002508F9017D
:100EFE00F9072408F801F807EA2676088312031387
:100F0E00A600A60D06082606FD3926068600023026
:100F1E00F6000030F7002508F901F9072408F8015A
:100F2E00F807EA26760883120313A600A60DA60D6F
:100F3E0006082606FB39260686000330F60000302A
:100F4E00F7002508F901F9072408F801F807EA2641
:100F5E00760883120313A600A60DA60DA60D06088D
:100F6E002606F739260686000430F6000030F70014
:100F7E002508F901F9072408F801F807EA2676088A
:100F8E0083120313A600A60E06082606EF392606C0
:100F9E0086000530F6000030F7002508F901F90744
:100FAE002408F801F807EA26760883120313A60030
:100FBE00A60EA60D06082606DF3926068600063082
:100FCE00F6000030F7002508F901F9072408F801AA
:100FDE00F807EA26760883120313A600A60EA60DBE
:100FEE00A60D06082606BF392606860008008301D0
:020FFE001E2FA4
:02400E0061FF50
:00000001FF
